:100000006F10200000000000D410000080100000DD
:1000100000000000000000000000000000000000E0
:1000200000000000000000000000000000000000D0
:1000300080100000000000008010000000000000A0
:100040008010000080100000801000008010000070
:100050008010000080100000801000008010000060
:100060008010000080100000801000008010000050
:100070008010000080100000801000008010000040
:100080008010000080100000801000008010000030
:1000900080100000801000008010000001000000AF
:1000A000B70700406368F500014799E7131507019A
:1000B000418182808983FDB7B306F70005836364BD
:1000C000D500158D3E978983CDB7B70702401387BA
:1000D00001C2D8DFC8DB985B9306002013671700C6
:1000E00098DB37070240FD15C205C18154C31C438C
:1000F00093F70720EDDFE5F9B7070240985B799B9E
:1001000098DB8280373701402316A700835787008A
:10011000898BEDDF8280371701405C4B93E7070145
:100120005CCBCDB7371701401C4B611122C006C212
:1001300093E707012A841CCB2181E9371375F40F5B
:100140000244924021017DBF311122C62A84130549
:10015000A00206C82EC432C236C0753F2285D937E8
:100160001245C9371305B0027D372245653F024568
:10017000553F3244C2401305C002510169BF1111FD
:1001800006CC22CA26C8AA87014763550500B307D3
:10019000A0400547138401C2A305041EAD4495EF9A
:1001A000AD476397F400930700032305F41EA944A9
:1001B00011CBFD1493F4F40FB30794001307D0028E
:1001C0002380E71E9307041EA69703C7070015EFB9
:1001D000E2405244C24471018280FD1493F4F40F52
:1001E000B30694003E85A9453AC43EC036C2EF002E
:1001F000F05E924613050503A9452380A61E02451D
:10020000EF0050582247AA8759BF93162700369708
:100210003AC003D341C103D561C005671307C7398D
:100220008507814581443AC605473317B7003AC26E
:10023000814626878242B24313061700B6929E92E9
:1002400083C2020092434206418232C43A860907C1
:100250004207B3F27200418363830208935385001F
:10026000AA82229623007600224685062296230043
:1002700056001546E390C6FCA904C204C1801307CA
:1002800060048505E392E4FA37170140544B3EC2FF
:1002900093E6460054CB03D381C183D561C11306D5
:1002A000430093866500C20642061A85C1824182D8
:1002B0001AC0593D37170140144B8545268593E6F2
:1002C000060114CB193537170140144B024393E64E
:1002D000460014CB19039247239C61C0FDB593538C
:1002E00083009A82BDBF611122C0371401405C486F
:1002F00006C22A8693E747005CC8AE86B1357D45C5
:1003000015351C48924093E747001CC80244210160
:100310008280411136C006C622C426C28147938618
:1003200001C213538700139417006396C704B714D0
:100330000140D8481386F7FF2A9613674700D8C8AC
:100340000247420641829306F7FFAE96C206C1827B
:10035000E53B9C4882451315040193E707019CC8BF
:100360004181A5339C48B240224493E747009CC892
:1003700092444101828042044180B3828600050498
:10038000420441808507238062003694C20723001F
:10039000E400C18349BF211122C806CA26C62AC06B
:1003A0000954A2852285EF00703CAA8413054038C9
:1003B000058DFD3193057407C2051307000EAA874A
:1003C000C181634C97002AC41305100E058D2EC2FF
:1003D000C1399245A247AA841DE513961700050668
:1003E00002471305700742061D8D8546418242056E
:1003F000418105370504FD47E315F4FAD240424434
:10040000B244610182803386A7401305700702471A
:100410001D8D4206420541828546418132C42EC26D
:10042000CD3D2246024792450506420613857407D4
:10043000854641826DBF99C6014363D7B600B68534
:10044000054319A00143AE868D8EBA87B303D7004A
:10045000B382F3406349500293C7F6FFFD87FD8ED8
:10046000BA9681473386F5406343C00293C7F5FFD0
:10047000FD87FD8DB695AE873385E5409306A002D6
:100480006314030282808507A38FC7FED1B73306AA
:10049000F500834206003386F600850723005600E8
:1004A000D1B7A38FD7FEFD171386D5FFE30CF6FC5B
:1004B000E369F7FE828001CE8322060001475C4299
:1004C0006349B700238007004C42B38555402E8511
:1004D00082800323860014427D139A96E384D7FE1C
:1004E0009386170054C2B306E50083C606000507CD
:1004F0002380D700E9B7B70700E09387470F9843F9
:10050000137707086DFF3727307813078708B7067A
:1005100000E098C39386460F7147A54571569C42EB
:1005200093F70708EDFF3353E5001373F300B3B7F8
:100530006500B307F04093F77702938707039A9714
:10054000A20793E757089CC27117E31AC7FC828081
:10055000B70700E083A7470F8280B70700E09387C3
:10056000470F9843211106CA22C826C61377070CE5
:100570009306000C630BD70002C42E84DDED9C4370
:1005800089C793F7070891E3E1370144D2402285F8
:100590004244B244610182807D1709EF984313679A
:1005A000070C98C3DDB737071000B70700E0050751
:1005B0009387470F944313F6060879FEB3079440D8
:1005C0001D476353F700BA8791C62AC23EC0493718
:1005D0001245824734000D47B6856346F704A246AC
:1005E000370700E0232CD70EB3069500014703C35D
:1005F000060005073386E50023006600850663557F
:10060000F7001306D7FF65F613874700136707F84F
:100610002304E100A246370700E0BE94232AD70E48
:10062000E3C384F8A5B73386E4002A9603460600A0
:1006300005078506A38FC6FE4DB78144D5B7611166
:1006400022C006C22E84113F92402285024421011D
:10065000828037F700E01C473E951C47898FE3CE28
:1006600007FE8280011106CE22CC26CA2A83635F50
:1006700005089397F60193D6F701C9EA8547330336
:10068000A0403EC0058A1304100619C213041004CA
:10069000BA8459141A853AC81AC22EC61AC4EF0071
:1006A000B011A5472243B24542473306850063E4B3
:1006B000A70013060503938714001A852380C4003E
:1006C0003AC83EC62EC4EF00700C9246A245B2470F
:1006D00042472A8363FEB602824699C61306D002B9
:1006E0002380C700938724003385E74023800700D9
:1006F0009357F501AA9785873306A700814663CBF8
:10070000F600F2406244D2440561828002C09DBF7F
:10071000BE8449B7B305D7008342F6FF03C3050083
:100720007D1623805500230066008506C9BFAA8771
:1007300003C7070001E73385A74082808507CDBF47
:10074000130141FAA2CAA6C886CC2AC02EC232849E
:10075000B68402CA03470400A30FE10055C3930601
:100760005002630BD70005041246824785451305E6
:10077000F101829726C421A2034714001306000347
:1007800093062400A30FE1003AC66312C70836841B
:1007900001468146254519A8139726003697060776
:1007A0000504B386E5000347F4FF0546930507FDFE
:1007B00013F3F50FE37265FE19C2A30FE10036C80B
:1007C00061466353D60032C81306C00681456318DC
:1007D000C7000347040085450504A30FE100034655
:1007E000F101130740066304E6066366C7021307B8
:1007F00080056305E60A130730066302E60C2DF652
:10080000E64056445245C6441301C1058280930711
:1008100000023EC6ADBF13075007630AE602130786
:100820008007630DE60613073007E31FE6F29387A0
:100830004400844036CC3EC42685D53DE246AA8598
:10084000635CD008C2463246381826851DA09387BF
:1008500044003EC495C91306B6F818109336160026
:1008600088400146A945FD3BC24632463818AA8554
:100870000810D1361246AA85281882478297D24797
:10088000A244AA973ECAF9B5130750076315E600BC
:1008900018108546F1B718108146D9B7884013065D
:1008A00086FA938744001810854613361600C14512
:1008B0003EC44D3BC2463246AA85381855BF938781
:1008C00044003EC49C40C2463246A30FF100381893
:1008D00085451305F10171BF1246268579BF1111B7
:1008E00032C62A862EC436C8814534001305E0631B
:1008F00006C23ACA3ECC36C0A13592407101828010
:100900002A86AE861305E06381451DBD311106C8F8
:1009100022C62AC02AC22EC419CD91CD2A848A8526
:100920001305604B313D01C4124582471D8DC24005
:1009300032445101828001448145DDB7311136C412
:10094000340006C23AC63EC836C0C937924051018B
:100950008280211132C42E86B705008036C6FD156F
:10096000340006C23AC83ECA36C04D3792406101D3
:1009700082802A96AA876393C70082802380B7006B
:100980008507D5BFAA8703C705002380E70011E3C9
:10099000828085058507C5BF8147630CF6003387D4
:1009A000F50003470700B306F50085072380E6003E
:1009B0006DF782808347050003C705006393E70056
:1009C00081E73385E740828005058505E5B705CEDB
:1009D0007D160143B307650083C60700B387650032
:1009E00083C707003387F64089CE93361700B337A5
:1009F000F000F58FB3066640B336D000F58F0503DF
:100A0000F1FB3A8582800145828093F5F50F83479B
:100A100005006386B70099C30505D5BF01458280EF
:100A2000511122C22EC02A8406C411338245B30755
:100A3000A4007D1493F5F50F63948700014539A058
:100A40003E8503470500FD17E398E5FEA2401244EA
:100A50003101828081476313F60082803387F5007D
:100A6000834607003307F50085072300D700E5B765
:100A700011CE8347050003C705006385E700338572
:100A8000E74082807D1605058505DDB7014582803A
:100A9000AA862E87B2876305B504B382C5403303A7
:100AA000C040B382A24006036363530065B7636B23
:100AB000B50295C7FD173306F70083450600338658
:100AC000F6002300B600F5B7B305C70003C505005F
:100AD000B385C60005062380A500E397C7FE3687C9
:100AE0003A8582800146D5BF93F5F50F09CA834741
:100AF00005006393B700828005057D16C5BF0145DB
:100B0000828051112E862EC0814522C206C42A84BD
:100B1000E13F024619C133068540A24012443285A6
:100B200031018280130141BB2AC02EC2130600028C
:100B30008145081023209144232411442322814419
:100B40000D3D12472A83814405468C00B307970068
:100B500083C70700638507148246A69683C60600EE
:100B600099EA832081440324414483240144368547
:100B70001301C144828093D657008A069A9683A2B5
:100B800006003315F6008A07336555008504AE97D5
:100B900088C284C365BF3305F7003695034305005B
:100BA0003305C700034505006310A30E6394860058
:100BB000854619A085062E86B2853386D500E36C5E
:100BC00096FC0546B28601437D55B305D30063ED1F
:100BD000950C930615009383170063F5D300B68335
:100BE000AA8732841E86B30587003A853EC81EC692
:100BF0003AC4BD3DB38784403EC22247B243C24798
:100C000009C91384F4FF1D8C6373F4003E8405044A
:100C100002C2824613E6F403014332C40246158E33
:100C2000637696022246024581453ACE36CC1ACAF0
:100C30001EC83EC6553DB247C2435243E2467247C4
:100C400055C13306D540636B960E2AC0B382960019
:100C500083C5F2FF101013D555000A0532950841DF
:100C600005463316B600698E59C290008A05B295C2
:100C70008C413386B440638EB4066373C300328301
:100C80009A960146328359BF637565003304F64076
:100C900005B7054413861500AE87A28631BF05440B
:100CA000A2868145FD5711BFB302A700B69283C348
:100CB0000200B302B70083C20200639A5300639438
:100CC000C600854619A085069A852E83FDBD63F56D
:100CD00053003386A540F5B70546930513001A85E2
:100CE000B286E5B70246A2452E9632C085B79686F3
:100CF00051BF9A85637373009E853305B700034522
:100D0000050001CDB382B60083C202006385A20054
:100D10009D8DAE9685BF8505CDB71E86E373C3E472
:100D20007D163305C700B385C6000345050083C59E
:100D30000500E305B5FE1246A296A9B7814615B592
:100D4000511106C422C226C003C40500AA8739C4B3
:100D5000AE84A2855D39AA8731C183C21400638F36
:100D60000202034315006309030403C7240039E7A3
:100D700083C607001395820013178300498CD98E10
:100D8000218122042183A20622953697420542073B
:100D90004181418385076319A700FD17A2401244D2
:100DA00082443E853101828083C617001377F70F96
:100DB00022078507558FE5F28147CDB78346250089
:100DC000E5DE83C5340085ED620413950201220738
:100DD000498C598C03C70700A2068907131687019F
:100DE00013170301518FD98E6314D400F9177DB7FF
:100DF00003C717008507D98EA2067DF775BF034686
:100E000035005DDA83C34400639E030262041395D8
:100E10000201498C22074D8C598C03C707004203FD
:100E2000A206620733676700518F558F8D076314E1
:100E30008700F517A5B783C6170022078507558FCA
:100E4000FDF69DBF1244A240A68582443101D9B966
:100E5000511106C422C226C0AA84D1382A84AA8588
:100E60002685EFF08FEF0565854513054566EFF0A4
:100E7000CFEEA24013051400124482443101828057
:100E80002320150040C104C523262500014582808A
:100E900083200500404104450321C50013B515001A
:100EA0002E958280B70700E09387470F98439306FB
:100EB000000C1377070C6303D704370710000507EE
:100EC000944313F606080DE685CE611106C22AC0CA
:100ED000EFF00FE802459240B70700E01375F50FF9
:100EE00022051365550823AAA70E05452101828016
:100EF0007D1779F798431367070C98C301458280E3
:100F00001375F50F220513655508B70700E023AAEE
:100F1000A70E05458280B7270240054798C3B7173B
:100F200002403707080123A207001307170898C3D8
:100F300037079F0098C7984393166700E3DD06FEC6
:100F4000D843B7160240719B13672700D8C32147C7
:100F5000DC42B18BE39EE7FEB70700E023AC070E4F
:100F60001307000823AAE70E828000002A860145A5
:100F700093F6150091C2329585810606F5F98280B7
:100F800000000000634E050263C305042E86AA8597
:100F90007D5515C285466378B6006356C0000606C7
:100FA0008606E36CB6FE014563E4C500918D558D60
:100FB00085820582F5FA82808682C93F2E858282EB
:100FC0003305A0406347B000B305B040C1B7B305D7
:100FD000B0408682653F3305A0408282868263C727
:100FE0000500634905005D372E858282B305B04058
:100FF000E35B05FE3305A040513F3305B0408282DC
:10100000000097F1FF1F9381A13F17F1FF1F13010C
:10101000617F096513050588731005308D4617F546
:10102000FFFF130525FE558D731055301385C1C084
:1010300097F5FF1F9385851D01466356B50010C1C6
:101040001105E34EB5FE17050000130525629385D3
:1010500041C017F6FF1F130666FB6388C5001441E5
:1010600094C111059105E39AC5FEB7F700E0154755
:1010700098C385679387270E7390173473002030C9
:1010800073251034EFF02FC773250030EFF0AFC693
:1010900073253034EFF02FC673252034EFF0AFC541
:1010A000B70700E09387470F9843137707086DFF52
:1010B0000567130757A898C3B70700E09387470F42
:1010C0009843137707086DFF37B7AAAA130737A805
:1010D00098C301A0371702401C47B7068000D58F80
:1010E0001CC7411106C622C426C23535B7140240BA
:1010F0009C4C37140140FD7693E707039CCC1C40C1
:101100009386F60F0566C19B93E787001CC0854751
:101110001CC81C4013060680916593F7F7F093E70F
:1011200007081CC089471CC89307044098433745EB
:101130004900130505E0758F518F98C3114798CB6F
:10114000984345767D16718F4D8F98C3EFF06FD021
:101150009C4C05674107D98F9CCC1C40FD7693863B
:10116000F60FF58F1CC01C4045767D1693E70730BF
:101170001CC01C400D673165F18F1CC01C4013055D
:1011800005B8D98F1CC01C403707F1FF7D17F98FB8
:101190001CC01C4037070300D98F1CC01C403707F8
:1011A00010FF7D17F98F1CC01C403707B000D98F86
:1011B0001CC01C40370700F17D17F98F1CC01C4074
:1011C0003707000BD98F71771CC013077730B737FB
:1011D00001402390E7001D472398E70003D747000D
:1011E000136727002392E70003D70700136707045C
:1011F0002390E700DC480D671307070B93E7170000
:10120000DCC8B707024098DB37370140310798DF69
:101210001C4893E787001CC8EFF0AFC35C483165FA
:10122000130505B893E787005CC8EFF08FC21C4830
:1012300037E557001305054093E787001CC8EFF01A
:101240004FC15C48454593E747005CC8EFE0BFEC01
:1012500037E5570013050540EFF0AFBF1305A003B6
:10126000EFE07FEB1C481305500593E707011CC80E
:10127000EFE05FE913056003EFE0FFE91C4801457B
:1012800093E707011CC8EFE0FFE713051002EFE04A
:101290009FE813059002EFE01FE81C489306000F3B
:1012A000014793E747001CC8368681450145EFF0AA
:1012B0004F8681450145EFF00F839305F00E014500
:1012C000EFF06F8281451305F00EEFF0CF819305AB
:1012D000F00E2E85EFF02F81B7170140938707405E
:1012E0009C47918B8DEBB7F700E08847B1659385FC
:1012F00005B8693983A7C1C09306800CB307F540D0
:1013000063FBF60023A6A1C003A5C1C18D45050559
:10131000F13123AEA1C0B7170140984783C641C041
:10132000058B3AC09847FD1683A701C1098B8DE252
:10133000824699EE29CF85072D6523A8F1C01515A2
:10134000EFF06F8537B5030013050598EFF06FB028
:10135000024703A501C12382E1C07D472393E1C079
:10136000239A01C093077007239CF1C0239BF1C00F
:10137000EFE0FFE003A5C1C193077007239CF1C014
:101380009307400B239BF1C0EFE07FDFB1B7FD1760
:10139000416523A8F1C0130505805DB7000000007A
:1013A000003E5B4F5B3E3E6B4F6B3E1C3E7C3E1CEB
:1013B000183C7E3C181C577D571C1C5E7F5E1C0031
:1013C000183C1800FFE7C3E7FF0018241800FFE7E8
:1013D000DBE7FF30483A060E2629792926407F05AB
:1013E0000507407F05253F5A3CE73C5A7F3E1C1CC1
:1013F00008081C1C3E7F14227F22145F5F005F5F81
:1014000006097F017F006689956A6060606060946C
:10141000A2FFA29408047E040810207E2010080871
:101420002A1C08081C2A08081E101010100C1E0C7C
:101430001E0C30383E3830060E3E0E06000000000E
:101440000000005F00000007000700147F147F14F5
:10145000242A7F2A1223130864623649562050003A
:1014600008070300001C2241000041221C002A1C26
:101470007F1C2A08083E0808008070300008080811
:101480000808000060600020100804023E51494531
:101490003E00427F400072494949462141494D334F
:1014A0001814127F1027454545393C4A49493141B6
:1014B000211109073649494936464949291E000084
:1014C00014000000403400000008142241141414D9
:1014D0001414004122140802015909063E415D59C5
:1014E0004E7C1211127C7F494949363E41414122CE
:1014F0007F4141413E7F494949417F090909013EF8
:10150000414151737F0808087F00417F410020401E
:10151000413F017F081422417F404040407F021C30
:10152000027F7F0408107F3E4141413E7F09090947
:10153000063E4151215E7F09192946264949493213
:1015400003017F01033F4040403F1F2040201F3FD9
:101550004038403F6314081463030478040361595E
:10156000494D43007F4141410204081020004141A0
:10157000417F04020102044040404040000307084C
:101580000020545478407F28444438384444442848
:10159000384444287F385454541800087E090218EF
:1015A000A4A49C787F0804047800447D4000204077
:1015B000403D007F1028440000417F40007C0478BB
:1015C00004787C080404783844444438FC18242403
:1015D0001818242418FC7C08040408485454542483
:1015E00004043F44243C4040207C1C2040201C3C00
:1015F0004030403C44281028444C9090907C4464F7
:10160000544C440008364100000077000000413689
:10161000080002010204023C2623263C01020304C6
:101620000506070801020304050607080204060868
:1016300004080C1008101820102030402040608052
:101640000102030405060708010203040506070852
:101650000204060804080C1008101820102030405E
:08166000204060800A00000038
:081668000100FFFF000000007B
:00000001FF
